:100000000C94A7000C94720D0C94C4000C94C400C2
:100010000C94C4000C94C4000C94C4000C94C40050
:100020000C94C4000C94C4000C94C4000C94C40040
:100030000C94C4000C94C4000C94C4000C94C40030
:100040000C94280D0C94C4000C94C4000C94C400AF
:100050000C94C4000C94C4000C94C4000C94C40010
:100060000C94C4000C94C4000FED03212020202028
:100070002020202020202020202020200045525217
:100080004F523A20004641543136004641543332F3
:1000900000506172746974696F6E3A2000736F72F8
:1000A00074696E67206C6973742E2E2E2000627541
:1000B000696C64696E67206C6973742E2E2E004E15
:1000C00049433A2000204E6F20696D6167652068C2
:1000D00065726521200053656C656374204E494349
:1000E00020696D61676500204E6F20534420696E62
:1000F0007365727465642000204E6F726D616C20B0
:10010000534420636172642000202020205344481F
:100110004320636172642020200043616E206E6F73
:100120007420696E697420534420004170706C65BE
:100130002049492D425220323031350020202053B1
:100140004449534B32204C434420202000001124CA
:100150001FBECFEFD8E0DEBFCDBF11E0A0E0B1E021
:10016000E0E0FFE102C005900D92A830B107D9F799
:1001700028E0A8E0B1E001C01D92A934B207E1F780
:100180000E94D60D0C947E0F0C94000090E194B95F
:100190002AE327B922E32AB995B992E098B99BB925
:1001A00017BC14BC21E025BD95BF90936900109247
:1001B000F707109229081092280810922708109229
:1001C000F6071092F5071092F8072093FC0710929B
:1001D000FB071092180110921E012FE131E03093BD
:1001E000FE072093FD078823C9F00E9448070E945C
:1001F00088078CE391E00E94DE0761E080E00E94C6
:100200008E078BE291E00E94DE072FE784E89EE1F3
:10021000215080409040E1F700C000000895FC01AB
:10022000009751F080858E3439F48185893421F42A
:1002300081E09285933409F080E00895009729F0D9
:10024000FC01838582958170089580E00895FF9276
:100250000F931F93CF93DF93D82FF62EC42FA62F83
:10026000B0E040E1C49FA00DB11D1124FD0100903C
:10027000480802C0F695E7950A94E2F7EE0FFF1FD3
:10028000EE0FFF1FE150F84F008111812281338171
:1002900082E08BB91BB8E0914708F0E03197EA2380
:1002A000FB234091340850913508609136087091D5
:1002B00037084E0F5F1F611D711D02501109210982
:1002C00031090090480804C0000F111F221F331F7E
:1002D0000A94D2F7400F511F621F731F88E10E94DA
:1002E000C0088FEF0E94F4078EEF0E94F40780EBA6
:1002F00090E030E120E33BB92BB901970097D9F7A3
:100300001BB883E00E94F4078CEF0E94F4078FEF84
:100310000E94F4078FE30E94F4078FEC0E94F40719
:1003200083EF0E94F4078CEF0E94F4078FEF0E9486
:10033000F4078FE30E94F4078FEC0E94F40783EF29
:100340000E94F4078CEF0E94F40785ED0E94F407E9
:100350008AEA0E94F40786E90E94F4078FEF0E9460
:10036000F4078EEF0E94F4078C2F86958A6A0E940C
:10037000F4078C2F8A6A0E94F4078F2D86958A6A6B
:100380000E94F4078F2D8A6A0E94F4071EEF1F2532
:100390001C27812F86958A6A0E94F407812F8A6A1A
:1003A0000E94F4078EED0E94F4078AEA0E94F40787
:1003B0008BEE0E94F4078FEF0E94F4078FEF0E94EC
:1003C000F4078FEF0E94F4078FEF0E94F4078FEF7E
:1003D0000E94F4078EE591E0D89F9001D99F300DDF
:1003E0001124215E3E4F80E090E070E2A0E1B0E396
:1003F000F901E80FF91FE08148E050E060E8F62FCE
:10040000FE2319F0ABB9BBB902C01BB87BB9669526
:10041000415051094115510591F701968D3541E043
:10042000940731F71BB880E790E030E120E33BB957
:100430002BB901970097D9F71BB880E093E020E231
:100440001BB82BB901970097D9F71BB88FEF0E9403
:10045000F4078FEF0E94F4070E940A080E94A40A82
:1004600082E08BB91BB8DF91CF911F910F91FF9064
:100470000895CF92DF92EF92FF920F931F93CF9345
:10048000DF934B9933C0E3E1F1E081918F3F51F16C
:10049000C9E1D1E091E2E92E91E0F92E03E111E00A
:1004A000D12CCC24CA94F80160816F3F21F048819F
:1004B0008D2D0E942701F801C1928F01C992F70189
:1004C0001082D394F2EAEF1AFEEFFF0A85E0D81209
:1004D000EACF109218018FE191E09093FE0780938C
:1004E000FD0704C081E0E831F80779F6DF91CF918C
:1004F0001F910F91FF90EF90DF90CF900895809122
:10050000F5079091F60780399C40C0F480E18BB9E3
:100510008091F5079091F60720E330E1803140E1CA
:10052000940730F44B990AC02BB93BB90196F6CF2A
:1005300080E99CE09093F6078093F50708954B9926
:100540006EC040911801842F90E02EE531E0829F2B
:10055000F001839FF00D929FF00D1124E15EFE4F9C
:1005600022812D3A09F042C020911E01211131C093
:100570002091F707FC01ED5EFE4F2083FC01E75E52
:10058000FE4F3091FB07369536953083822F8D7F55
:100590008D3011F482E001C081E0820F8F70809372
:1005A000F707443029F40E947F020E9439021BC0E1
:1005B0004F5F409318012EE531E0429FC001439FF9
:1005C000900D1124815E9E4F9093FE078093FD074E
:1005D0000DC0809110018093F70710921E018F309B
:1005E00029F40E947F0281E08093FC07209118018A
:1005F0008EE591E0289FF001299FF00D1124E15E26
:10060000FE4F8281863959F487818575880F9085E0
:100610009575892B8093100181E080931E010895C8
:100620002FE131E080E090E0F901E80FF91F10823E
:1006300001968E3541E09407B9F7225A3E4F87E084
:10064000253F380779F7E9E1F1E0A3E1B1E08FEF69
:1006500081938D9391E0EE31F907D1F70895CF930F
:10066000C82F0E94B8084B9B0BC00E94880760E00F
:1006700080E00E948E0787EE90E0CF910C94DE0719
:100680002FE131E030933108209330080E94100AA6
:1006900081111CC00E94880760E080E00E948E07E4
:1006A0008AE191E00E94DE0761E080E00E948E070F
:1006B0008DE790E00E94DE0780912B0890E00E9479
:1006C000A407109229084B9BFCCF83C0CC2389F050
:1006D0000E94880760E080E00E948E0780913308C6
:1006E000823019F489E091E002C088EF90E00E9426
:1006F000DE070E94AB0A81111CC00E94880760E0DF
:1007000080E00E948E078AE191E00E94DE0761E0AE
:1007100080E00E948E078DE790E00E94DE078091C6
:100720002B0890E00E94A407109229084B9BFCCF55
:1007300050C0809147084091410850914208849FE1
:100740009001859F300D112421153047F8F485E084
:1007500080932B080E94880760E080E00E948E074B
:100760008AE191E00E94DE0761E080E00E948E074E
:100770008DE790E00E94DE0780912B0890E00E94B8
:10078000A407109229084B9BFCCF23C0CC23E1F097
:1007900061E080E00E948E0781E990E00E94DE0720
:1007A000809138088B3019F48BE890E002C085E81E
:1007B00090E00E94DE079FEB26EC8DE291502040F6
:1007C0008040E1F700C000000E941003CF910C941C
:1007D000B408CF910895CF92DF92EF92FF920F93DA
:1007E0001F93CF93DF936C01EB01209719F480E006
:1007F00090E0D7C060E080E00E948E078FEB90E031
:100800000E94DE077E0100E010E0F70181917F0188
:10081000803211F00E9496070F5F1F4F08301105BC
:10082000A1F78CE690E00E94DE0761E080E00E9484
:100830008E078CE690E00E94DE07D0920D01C092F8
:100840000C0180913D0890913E08A0913F08B09125
:1008500040088093080190930901A0930A01B09386
:100860000B01809138080A8D1B8D8B3071F46C89D7
:100870007D89CB01A0E0B0E07727662720E030E05B
:10088000602B712B822B932B03C0B80180E090E08A
:10089000611571058105910509F4A9CFEFEFF7E026
:1008A000119211921192119228E0E732F207C1F7EA
:1008B0006093FF07709300088093010890930208EB
:1008C000C1E0663FEFEF7E0781059105A8F40E9425
:1008D000A00B663FEFEF7E078105910558F424E0F9
:1008E000C29FF0011124E150F84F6083718382832D
:1008F0009383CF5FCA3028F361E080E00E948E07C7
:100900008091470890E00E94A40781E091E00E9456
:1009100098078C2F90E00E94A40781E091E00E944C
:1009200098078091FF07909100080E94A40781E03A
:1009300091E00E94980780910308909104080E941A
:10094000A40781E091E00E949807809107089091A8
:1009500008080E94A4071092F6071092F50710925B
:1009600028081092F807C1E0C093FC071092FB071B
:100970001092F7071092180110921E018FE191E07A
:100980009093FE078093FD0740E052E060E070E046
:1009900080E10E9411090E941003C093290881E0A0
:1009A00090E0DF91CF911F910F91FF90EF90DF903A
:1009B000CF900895AF92BF92CF92DF92EF92FF92C5
:1009C0000F931F93CF93DF93CDB7DEB728970FB662
:1009D000F894DEBF0FBECDBF10920F0110920E0132
:1009E0008FE191E090933108809330088BED93E094
:1009F0009093FA078093F9070E94100360E080E06B
:100A00000E948E0786ED90E00E94DE0761E080E0A4
:100A10000E948E078EEA90E00E94DE0700E010E060
:100A2000C8010E94780C7C010E940F01811105C051
:100A3000C7010E941E018823B9F080910E01909198
:100A40000F01880F991FE091F907F091FA07E80F5D
:100A5000F91F1183008380910E0190910F0101967F
:100A600090930F0180930E010F5F1F4F80910E0135
:100A700090910F01883C91057CF4003921E0120728
:100A800079F6892B49F461E080E00E948E0785ECBD
:100A900090E00E94DE071EC161E080E00E948E07A8
:100AA0008DE990E00E94DE0780910E0190910F0188
:100AB00002978CF420910E0130910F0140910C01AE
:100AC00050910D01E091F907F091FA0700E010E074
:100AD00080E090E063C0C12CD12C80910E019091F8
:100AE0000F010197C816D9062CF700E010E0EE249C
:100AF000E394F12C80910E0190910F018C199D09C6
:100B0000E816F9060CF03FC05701AA0CBB1CE09197
:100B1000F907F091FA07EA0DFB1D808191810E948F
:100B2000780C48E050E0BC01CE0101960E94040F11
:100B3000E091F907F091FA07E00FF11F80819181B0
:100B40000E94780C48E050E0BC01CE0101960E9462
:100B5000F70E97FF12C0E091F907F091FA07DF0155
:100B6000AA0DBB1D8D919C911197E00FF11F208163
:100B700031812D933C93918380833FEFE31AF30AF5
:100B80000E5F1F4FB7CF4FEFC41AD40AA6CF6191A3
:100B900071914617570709F48C0101968217930744
:100BA000B4F38FEF9FEF4B9995C04F9916C04F9BB1
:100BB000FECFEFE3F2E42FE0E150F0402040E1F718
:100BC00000C000000F5F1F4F20910E0130910F01F8
:100BD0000217130711F400E010E01D9915C01D9BCA
:100BE000FECF3FE342E4EFE031504040E040E1F728
:100BF00000C000000150110917FF06C000910E014E
:100C000010910F01015011094E9925C04E9BFECF46
:100C1000000F111FE091F907F091FA07E00FF11FA3
:100C2000808191810E94780C7C010E941E018823A2
:100C300031F0C7010E94010C0E94DA044BC0E09120
:100C4000F907F091FA07E00FF11FB7018081918158
:100C50000E94EB033FC00817190709F4A4CFE091E5
:100C6000F907F091FA07C801880F991FE80FF91FDB
:100C7000808191810E94780C5C0161E080E00E949B
:100C80008E07C5010E941E01882321F083E091E0B8
:100C90000E9498077501C12CD12CF70181917F0129
:100CA000803211F00E949607FFEFCF1ADF0A28E08A
:100CB000C216D10491F7C5010E941E01882321F0BC
:100CC00085E091E00E9498078CE690E00E94DE07A4
:100CD000C80169CF28960FB6F894DEBF0FBECDBF0E
:100CE000DF91CF911F910F91FF90EF90DF90CF9008
:100CF000BF90AF9008950F931F93CF93DF938FE131
:100D000091E090933108809330080E941003C0E076
:100D1000D0E0CE010E94780C8C010E940F01882344
:100D200041F0B801CE01DF91CF911F910F910C944A
:100D3000EB032196C03981E0D80759F710922908B2
:100D4000DF91CF911F910F9108954B9B21C080E0BF
:100D500095E04B9B4DC001970097D9F780916E00AD
:100D60008E7F80936E00E898109229081092FC07FD
:100D700060E080E00E948E0787EE90E00E94DE0730
:100D800061E080E00E948E078CE690E00C94DE0724
:100D90004E9912C0309B10C084E690E021E04E993D
:100DA00020E001970097D9F7222311F14E9BFECF47
:100DB000F8940E94DA0411C080912908811118C0AA
:100DC00080E095E04B9914C001970097D9F7F8940B
:100DD00081E00E942F030E947B06809129088823CE
:100DE00031F080916E00816080936E00E89A789473
:100DF0000895459880FF02C0419A01C0419881FF43
:100E000002C0439A01C0439882FF02C05C9A01C0AD
:100E10005C9883FF02C05D9A01C05D98459A88E0A6
:100E20008A95F1F70000459888E08A95F1F700006F
:100E30000895CF93C82F599A449882958F700E9435
:100E4000F9068C2F8F700E94F906CC7F29F086E777
:100E500091E00197F1F704C080E899E20197F1F77A
:100E600000C00000CF910895CF93C82F599A449A9B
:100E700082958F700E94F9068C2F8F700E94F90660
:100E800080E792E00197F1F700C00000CF9108954C
:100E900044982FE880ED93E0215080409040E1F7A6
:100EA00000C0000083E00E94F90681E19AE7019703
:100EB000F1F700C0000083E00E94F90681E19AE7A3
:100EC0000197F1F700C0000083E00E94F90681E17C
:100ED0009AE70197F1F700C0000082E00E94F9064E
:100EE00081E19AE70197F1F700C0000088E20E94D3
:100EF000190788E00E94190781E00E94190782E023
:100F00000E94190786E00E9419078CE00C941907CB
:100F100081E00E94190782E00C9419078F7060FD30
:100F200002C0805801C080540C9419070C943407F7
:100F3000CF93DF93EC018991882319F00E94340745
:100F4000FACFDF91CF910895CF93DF93CDB7DEB77E
:100F50002A970FB6F894DEBF0FBECDBF4AE0BE01A0
:100F60006F5F7F4F0E94180FCE0101960E94980775
:100F70002A960FB6F894DEBF0FBECDBFDF91CF919A
:100F80000895CF93DF93CDB7DEB72A970FB6F894C5
:100F9000DEBF0FBECDBF2AE0AE014F5F5F4F0E94A4
:100FA000230FCE0101960E9498072A960FB6F89457
:100FB000DEBF0FBECDBFDF91CF910895CF93DF93FA
:100FC000FC018491EF012196882321F00E943407CF
:100FD000FE01F7CFDF91CF910895519A549A559A17
:100FE000509810922A08089528E030E090E840E2F6
:100FF00050E160E3792F782319F05BB96BB902C037
:101000001BB84BB99695215031092115310591F73F
:101010001BB80895CF93DF931F92CDB7DEB780E161
:101020008BB9198280E020E330E19981983051F04A
:101030002BB999B1880F9170892B3BB999819F5F2A
:101040009983F3CF0F90DF91CF91089582E38BB90D
:1010500082E18BB9089528E100002A95E9F701970C
:10106000D1F708950895DF92EF92FF920F931F93A7
:10107000CF93DF93082FC8E0D0E010E880E2F82E8D
:1010800090E1E92E20E3D22E812F802339F0EBB8B6
:1010900081E090E00E942B08DBB806C01BB881E01D
:1010A00090E00E942B08FBB816952197209761F7D6
:1010B00081E090E00E942B081BB8DF91CF911F9137
:1010C0000F91FF90EF90DF90089590912A08911171
:1010D00003C00E94330802C00E94F40780E0089514
:1010E000FF920F931F93CF93DF931F92CDB7DEB77D
:1010F00080E18BB981E090E00E942B08198210E01A
:1011000030E3F32E00E18981883091F0FBB881E073
:1011100090E00E942B0889B1110F8170182B0BB938
:1011200081E090E00E942B0889818F5F8983EBCF5B
:10113000812F0F90DF91CF911F910F91FF90089514
:1011400080912A08811102C00C9470080C940A083E
:1011500082E38BB981E090E00E942B0882E18BB999
:1011600081E090E00C942B0881E080932A08089598
:1011700010922A0808950E940A0887FDFCCF08955E
:101180001F93CF93DF9300D000D0CDB7DEB7182FD9
:1011900080913208811107C089E0440F551F661FF6
:1011A000771F8A95D1F78FEF49835A836B837C83AE
:1011B0000E94F407812F80640E94F4077C81872FAE
:1011C0000E94F4076B81862F0E94F4075A81852FB5
:1011D0000E94F4074981842F0E94F40785E90E9448
:1011E000F4078FEF0E94F40700000E94BB088150B3
:1011F0008E3FD0F30F900F900F900F90DF91CF9113
:101200001F910895AB01BC0181E10E94C0080E94BA
:101210000A08000000000000000000008E3FB9F73F
:101220000895FF920F931F93CF93DF9300D000D0C8
:10123000CDB7DEB7082F80913208811113C08FEE31
:10124000800F823040F088EE800F823020F080EEF8
:10125000800F823038F499E0440F551F661F771FC6
:101260009A95D1F78FEF49835A836B837C830E94D1
:101270006508802F80640E9465087C81872F0E940A
:1012800065086B81862F0E9465085A81852F0E9410
:1012900065084981842F0E946508083011F487E8A9
:1012A00001C085E90E94650810E00E94A008F82EA0
:1012B0008FEFF81203C01150C1F715C0F11013C021
:1012C0000A3389F40E94A00886FF04C081E080935D
:1012D000320802C0109232080E94A0080E94A008A2
:1012E0000E94A008F12C0E94A0088F2D0F900F9053
:1012F0000F900F90DF91CF911F910F91FF90089564
:101300000F931F93CF93DF93AB01BC0180912C0807
:1013100090912D08A0912E08B0912F0848175907D9
:101320006A077B0779F140932C0850932D0860934E
:101330002E0870932F0881E10E941109811123C0AA
:10134000C0E0D0E00E94A0088E3F29F021972097AE
:10135000C9F780E018C0C0E0D0E0009130081091DB
:1013600031080C0F1D1F0E94A008F80180832196F0
:10137000C115F2E0DF0789F70E94A0080E94A008CB
:101380000E94A00881E0DF91CF911F910F910895F5
:10139000CF93DF93AB01BC0188E10E941109811159
:1013A00037C08EEF0E946508C0E0D0E0E0913008C1
:1013B000F0913108EC0FFD1F80810E946508219695
:1013C000C11522E0D20791F78FEF0E9465088FEFD9
:1013D0000E9465080E94A008982F9F719530C1F463
:1013E000C0E0D0E00E94A008811104C02196D1F78E
:1013F00080E00EC08FEF0E9465080E94A008811156
:1014000006C0CE010196219699F3EC01F6CF81E05A
:10141000DF91CF910895AB01BC0180E10C941109DB
:101420001F93CF93DF930E94ED070E94B8084B995A
:1014300080C080E185B98FE097E2A0E0B0E08093C2
:101440002C0890932D08A0932E08B0932F0818EC29
:101450000E94A8081150E1F7C0E0D8E040E050E059
:10146000BA0180E00E9411092197209719F415B85C
:1014700081E03DC0813091F78FEF0E9465088FEFCA
:101480000E94650882E080933308CFEFD7E04AEAF4
:1014900051E060E070E088E00E94110921972097F8
:1014A00021F481E08093330802C0813081F7CFEFCF
:1014B000D7E040E050E0BA0187E30E94110989E6D5
:1014C00098E10197F1F700C0000040E050E060E0D3
:1014D00070E489E20E941109E9E6F8E13197F1F739
:1014E00000C000002197209729F415B882E080936E
:1014F0002B0820C08111DDCF109232088091330873
:10150000823049F060E072E080E090E00E940B0AD7
:1015100015B811E00FC0CFEFD0E040E050E0BA01C5
:101520008AE30E9411092197209761F38111F5CF79
:10153000E9CF10E0812FDF91CF911F91089580E1D5
:1015400085B9089515B808950E940A084B9902C0FC
:101550008F3FD1F708954F925F926F927F928F9253
:101560009F92AF92BF92CF92DF92EF92FF921F9322
:10157000CF93DF9360E070E0CB010E948009E0919F
:101580003008F091310880818D7F893E41F1DF0183
:10159000A250BE4F8D919C9185359A4A99F4E254A0
:1015A000FE4F84818093380860857185828593859C
:1015B0000E948009E0913008F091310880818D7F90
:1015C000893E11F083E007C0809138088B3039F0F4
:1015D000863029F084E080932B0880E0A1C0C09180
:1015E0003008D09131084385548550934208409388
:1015F000410815851093470886859785C48CD58C3E
:10160000E68CF78CC80ED91EE11CF11CC092430871
:10161000D0924408E0924508F0924608609138085C
:10162000663019F42689378902C02CA13DA1A08912
:10163000B0E02A9FC0012B9F900D3A9F900D11247E
:1016400046015701880E991EA11CB11C80923408D6
:1016500090923508A0923608B09237084CA45DA449
:101660006EA47FA46630B9F0A30192012250310923
:1016700041095109A12FB0E00E94EC0E680D791DBF
:101680008A1D9B1D6093390870933A0880933B082C
:1016900090933C0826C00E94DD0E4B015C018C0C2F
:1016A0009D1CAE1CBF1C8092390890923A08A092F3
:1016B0003B08B0923C088189928935E0880F991FD8
:1016C0003A95E1F7BA010E94A70E860E971EA11C5B
:1016D000B11C8092340890923508A0923608B092DE
:1016E0003708812F90E020E031E0320F8130910502
:1016F00021F096958795232FF7CF20934808809166
:10170000390890913A08A0913B08B0913C08809329
:101710003D0890933E08A0933F08B093400881E0B5
:10172000DF91CF911F91FF90EF90DF90CF90BF900E
:10173000AF909F908F907F906F905F904F900895A3
:101740004F925F926F927F928F929F92AF92BF92D1
:10175000CF92DF92EF92FF92CF93209138082630FC
:1017600041F088248A94982CA82C5FE0B52E22E0C2
:1017700006C088248A94982CA12CB12C21E004C0A6
:10178000660F771F881F991F2A95D2F7209141086D
:101790003091420840E050E00E94BB0E2B013C011A
:1017A000C0904308D0904408E0904508F090460867
:1017B000C20ED31EE41EF51ECAE0C701B6010E9488
:1017C0008009882311F0C150C1F7E0913008F091F1
:1017D0003108E40DF51D608171818281938168215A
:1017E00079218A219B21CF91FF90EF90DF90CF90BC
:1017F000BF90AF909F908F907F906F905F904F9031
:1018000008950F931F93FC01009789F48091390884
:1018100090913A08A0913B08B0913C0880933D0814
:1018200090933E08A0933F08B09340083FC0938533
:10183000892F807194FF3BC080913808428D538D71
:101840008B3071F484899589A0E0B0E0DC019927A0
:10185000882760E070E0842B952BA62BB72B03C064
:10186000CA01A0E0B0E00097A105B10579F29C01A2
:10187000AD012250310941095109A0914708B0E05A
:101880000E94EC0E00913408109135082091360822
:1018900030913708600F711F821F931F60933D08BE
:1018A00070933E0880933F089093400881E01F9119
:1018B0000F910895FC01009719F480E090E00895DD
:1018C00080818823D1F3853EC1F38E3221F481815A
:1018D0008E3219F0F2CF853081F383858E3169F332
:1018E0008F3059F3883249F3882339F3CF010895B3
:1018F0008F929F92AF92BF92EF92FF920F931F939E
:10190000CF93DF937C01F5E0EE0CFF1CFA95E1F735
:10191000E701CD2FDD27C69520914708622F70E0A3
:10192000CE010E94A70E8B0160913D0870913E0888
:1019300080913F08909140080115110509F44AC0B3
:1019400030913808363071F48090390890903A0818
:10195000A0903B08B0903C08681579058A059B0566
:1019600009F45FC08090340890903508A090360844
:10197000B0903708681979098A099B0930E040E07E
:1019800050E00E94BB0ECA01B9016E5F7F4F8F4FBE
:101990009F4FA12CB12C0E94A00B2FEFA21AB20ACC
:1019A000A016B106C1F79B01AC01225031094109D3
:1019B0005109A0914708B0E00E94EC0E80903408D5
:1019C00090903508A0903608B0903708680D791DC2
:1019D0008A1D9B1D9E01322F2227330FE21AF30A24
:1019E00040914708409F9001419F300D1124C21B38
:1019F000D30B6C0F7D1F811D911D0E94800980916A
:101A00003008909131088E0D9F1DDF91CF911F916D
:101A10000F91FF90EF90BF90AF909F908F900C949C
:101A20005A0C80E090E0DF91CF911F910F91FF90D1
:101A3000EF90BF90AF909F908F90089500000000AE
:101A400000000000000000000000000000000895F9
:101A5000AF93AFB7AF93BF932F93A0912808209176
:101A60002708A22BA8B9A4EBA6BD20E0E7DFA09130
:101A70002708A8B9B091FC07BB2341F020932808A0
:101A80002F91BF91AF91AFBFAF911895A0E3ABB9C4
:101A9000A9B1A170AA0F2A2FA0E1ABB9A091F507B7
:101AA000B091F6071196A093F507B093F607A03909
:101AB00089F4BC3079F4A1E0A093FC07CF93C0E790
:101AC000A8E0B0E3BBB9B0E1BBB9AA95D1F7CA951C
:101AD000B9F7CF91209328082F91BF91AF91AFBF55
:101AE000AF9118952F932FB72F9330995BC03F93E9
:101AF0003091F80726B124702327E1F326B1247032
:101B00002093F80728E02A95F1F700004F935F93A0
:101B10006F937F938F93EF93FF9360E0E091FD07C6
:101B2000F091FE073DE541E00DC05091F80776B118
:101B300074707527E1F376B174707093F8077EE0E6
:101B40007A95F1F727E081E079B17470D9F400005B
:101B500000007BE17A95F1F776B174705091F80747
:101B60007093F807752776957695880F872B2A95B9
:101B700059F7853D09F461E06030B9F28193315045
:101B8000404099F69F93AF93BF930E949F02BF91ED
:101B9000AF919F91FF91EF918F917F916F915F91A5
:101BA0004F913F912F912FBF2F91189581E00E9467
:101BB000C600CBE80E94A506309B03C00E94A20A83
:101BC000F9CF0E949F0A83B18F7080931201909188
:101BD0001101891761F180931101883049F0843037
:101BE00009F4ACC0823009F4ABC0813001F5AAC061
:101BF00082E02091FB07820F982F97709695E92F2E
:101C0000F0E0E859FF4FE49180FFE295EF708E2FEE
:101C1000887009F0E86F2E0F253C08F095C02093DE
:101C2000FB078091FB078C3810F0C093FB07809175
:101C30002908882309F4BECF8091FC07882309F482
:101C4000B9CFF8948091F7078F5F8F708093F70773
:101C50009091FB079695969520E1929F8001112423
:101C6000080F111DF8010090480802C0F695E7958D
:101C70000A94E2F7EE0FFF1FEE0FFF1FE150F84F3F
:101C8000C080D180E280F38020911301281304C02A
:101C900020911901291701F120911401281304C082
:101CA00020911A012917C1F020911501281304C0B1
:101CB00020911B01291781F020911601281304C0DF
:101CC00020911C01291741F020911701281306C00B
:101CD00080911D01891302C00E9439021092F607FB
:101CE0001092F5071092FC072091470830E0215030
:101CF0003109202331236091340870913508809197
:101D0000360890913708620F731F811D911D97014E
:101D1000860102501109210931090090480804C0C8
:101D2000000F111F221F331F0A94D2F7600F711F7B
:101D3000821F931F0E94020978943CCF84E059CF00
:101D400086E057CF80E055CF1092FB076ACFAA1BE1
:101D5000BB1B51E107C0AA1FBB1FA617B70710F096
:101D6000A61BB70B881F991F5A95A9F780959095C8
:101D7000BC01CD010895A1E21A2EAA1BBB1BFD01D7
:101D80000DC0AA1FBB1FEE1FFF1FA217B307E4075A
:101D9000F50720F0A21BB30BE40BF50B661F771FB2
:101DA000881F991F1A9469F7609570958095909592
:101DB0009B01AC01BD01CF010895A29FB001B39F6B
:101DC000C001A39F700D811D1124911DB29F700D44
:101DD000811D1124911D08950E94DD0EA59F900D77
:101DE000B49F900DA49F800D911D11240895FB01B7
:101DF000DC0104C08D910190801921F441505040C4
:101E0000C8F7881B990B0895DC01FB014150504035
:101E100058F049F001900D920020C1F7E61BF70B36
:101E20003197CF0108951C9201900020E9F7F6CF79
:101E3000BB274A3031F4992322F4BDE29095819575
:101E40009F4F0C94550FBB272A3051F4992342F42D
:101E5000BDE290958095709561957F4F8F4F9F4F14
:101E60000C94330FBB27FA01A62F62177105810569
:101E70009105330B30FB66F0AA27660F771F881F8A
:101E8000991FAA1FA21710F0A21B63953850A9F73B
:101E9000A05DAA3308F0A95DA19336F7B111B19303
:101EA0001082CA010C946E0FBB27FB015527AA278D
:101EB000880F991FAA1FA41710F0A41B83955051D7
:101EC000B9F7A05DAA3308F0A95DA193009779F74F
:101ED000B111B1931192CB010C946E0FDC01FC0196
:101EE000672F71917723E1F7329704C07C916D934E
:101EF00070836291AE17BF07C8F30895F894FFCFBF
:081F0000FE20005B005D000003
:00000001FF
